:020000040800F2
:1000000090070020E50100080F2C00086D2900086A
:100010000D2C0008B5120008013000080000000097
:10002000000000000000000000000000132C000889
:10003000B712000800000000112C0008152C000861
:10004000FF010008FF010008FF010008FF01000890
:10005000FF010008FF010008FF010008FF01000880
:10006000FF010008FF010008FF010008FF01000870
:10007000FF010008FF010008FF010008FF01000860
:10008000FF010008FF010008FF010008FF01000850
:10009000FF010008FF010008FF010008FF01000840
:1000A000FF010008FF010008FF010008FF01000830
:1000B000952C0008FF010008FF010008FF0100085F
:1000C000FF010008FF010008FF010008FF01000810
:1000D000FF010008FF010008FF010008FF01000800
:1000E000FF010008FF010008FF010008FF010008F0
:1000F000FF010008FF010008FF010008FF010008E0
:10010000FF010008FF010008FF010008FF010008CF
:10011000FF010008FF010008FF010008FF010008BF
:10012000FF010008FF010008FF010008FF010008AF
:1001300000F002F800F047F80AA090E8000C8244B2
:100140008344AAF10107DA4501D100F03CF8AFF28F
:10015000090EBAE80F0013F0010F18BFFB1A43F0A5
:100160000103184780350000A0350000103A24BF75
:1001700078C878C1FAD8520724BF30C830C144BF0C
:1001800004680C607047000000230024002500264E
:10019000103A28BF78C1FBD8520728BF30C148BFEA
:1001A0000B607047662903F0BB81002070471FB5C4
:1001B00000F0C4FA04000020002102F0D9FFE06042
:1001C0001FBD10B510BD00F0D5FB1146FFF7EFFFC6
:1001D00002F072FF00F0F3FB03B4FFF7F2FF03BC81
:1001E00002F033FF0948804709480047FEE7FEE771
:1001F000FEE7FEE7FEE7FEE7FEE7FEE7FEE7FEE7D7
:1002000004480549054A064B70470000932C000836
:100210003101000890010020900700209003002089
:10022000900300200FB4044910B503AA029800F00F
:1002300073FA10BC5DF814FB080000202DE9F041B2
:100240000E460446002020622046E168884730B30D
:10025000252805D0D4E901219047206A401CF2E707
:10026000E168204600278847050018D0A5F1410025
:10027000192802D820354FF4006732462946204617
:100280002760FFF78FFF40B1012804D0F61D26F04C
:1002900007060836D8E7361DD6E72846DAE7206A8B
:1002A000BDE8F0814FF0000200B513469446964633
:1002B000203922BFA0E80C50A0E80C50B1F1200179
:1002C000BFF4F7AF090728BFA0E80C5048BF0CC027
:1002D0005DF804EB890028BF40F8042B08BF704785
:1002E00048BF20F8022B11F0804F18BF00F8012BF7
:1002F000704770477047704770472DE9FF4F0C46B5
:100300001E464FF0FF378BB0D2E90001DDF8608068
:100310000A908A46C1F30A5505B93D4600210846B0
:100320004FF00000BAF1000F00F4400005DA00EBD6
:1003300080004FF4400101EA50004FEA9059B9F1B2
:10034000010F00DDB9460A9850EA4A000ED044F683
:100350001050A5F2FF3545432F14B8F1000F1ED001
:100360007542291E1EDDC9F100021CE0B8F1010F23
:100370004FF0000001D0302103E0F24305E02154AA
:10038000401CB042FBDB30460022002121540B9977
:10039000C1F80880C1E900200FB0BDE8F08FBD1B97
:1003A0006D1CDEE74A4600DA694206A800F068FAEA
:1003B00006AB93E8070003AB83E8070050460A99B1
:1003C00000F046FB8DE80700A0F500501F380090B4
:1003D0000398002D0ADD42F21F014A46084400231B
:1003E00003A90390684600F0AFFD09E0A0F50050B6
:1003F0004A461F38002303A90390684600F0B9FD60
:100400008DE807000004000C03D04FF0FF304108D6
:1004100000E01046B8F1000F03D00022009215460C
:100420001EE0751E05D400F08DF9303262556D1E48
:10043000F9D5B3460122084302D000227F1C04E014
:100440002078302801D100227F1E002A099784D00D
:100450001DE0112D07DA00F075F9303262556D1C80
:1004600050EA0102F5D1084302D00098C8B10EE06D
:100470000021681E05E0235C625C63542254401E28
:10048000491C8142F7DBAB46A81B401E09900020A7
:1004900004F80B000B98099AC0F80880C0E9002BFB
:1004A0007AE711264FF0000857E72DE9F04F88460C
:1004B0000446D21D22F0070191B0D1E90001CDE937
:1004C0000A0102F09EFD02460B98C00F01D02D20BC
:1004D00007E02068810701D52B2002E0202101EAF6
:1004E000C000032A099001D0072A05DB03464146D4
:1004F000204600F085F90BE12078800601D5E069FF
:1005000000E00620B8F1650F814606D0B8F1660F0D
:1005100018D0B8F1670F70D131E00020B9F1110F98
:10052000009001DB112301E009F101030AAA01A9EE
:100530000CA8FFF7E2FEDDE90C70002609F10105C9
:10054000834647E001204B4600904FF000470AAA3F
:1005500001A90CA8FFF7D1FEDDE90DB00C995D46AD
:10056000002610B909F101000D18B9EB050003D4FC
:10057000C0F1FF3609F10105A5EB09002BE0B9F147
:10058000010F01DA4FF001090020B9F1110F0090BD
:10059000484601DD112300E003460AAA01A90CA880
:1005A000FFF7ABFEDDE90C704D4600268346207850
:1005B00000070AD4AB4500DA5D4601A8012D04DD31
:1005C000411911F8011C302907D04F4502DA17F103
:1005D000040F04DA012082460FE06D1EEEE7002FC3
:1005E00002DCED1B3E4403E0781CA84200DD7D1CCC
:1005F000B81B00F1010A4FF000472078000703D430
:10060000AA4501DB4FF0FF3A0021B7F1004F0DF191
:1006100043088DF8431024D002202B23002F01DA49
:100620007F422D230A21021EA0F1010000DC5FB1F0
:1006300097FBF1FC97FBF1F201FB1C7C17460CF1D8
:10064000300C08F801CDEEE7A8F101000370218815
:10065000090501D5452100E06521A0F1010800F858
:10066000011C09980FA9A1EB0807FF1D00B101208B
:10067000411901EBEA70A1693844081A401EA061D3
:100680002078C00602D42046AFF30080099828B134
:10069000D4E901219047206A401C20622078C006DE
:1006A00022D52046AFF300801EE0002E04DBB345C8
:1006B00002DD01A8805D00E03020D4E901219047EF
:1006C000206A401C2062761CAAF101005FEA000A41
:1006D0000AD100F033F8C0680168405CD4E9012118
:1006E0009047206A401C2062281EA5F10105DCDC31
:1006F00007E0D4E9012118F8010B9047206A401C5B
:100700002062381EA7F10107F3DC2046AFF300801A
:10071000032011B041E60000074B70B50D467B4445
:1007200000F05BF80446284600F01CF910B14FF0C9
:10073000FF3070BD204670BD7F2900000048704723
:100740004C01002030B5B0F10A024FEA900E71F171
:1007500000034EEA817EB0EB0E0061EB91014FEA9F
:10076000101E4EEA017E10EB0E0041EB11114FEA14
:10077000102E4EEA016E10EB0E0041EB11214FEAF4
:10078000104E4EEA014E10EB0E0041EB11414018A5
:1007900041F100014FEAD00040EA41704FEAD10137
:1007A00010EB80054FEA810444EA907444EB0104A5
:1007B0006D1944EB0404521BA3414FF0000348BFE2
:1007C0000A3200D530BD401C41F1000130BD0000AF
:1007D00001694A1C02610878704700B58FB0CDE905
:1007E00001310021059105497944CDE903101146F5
:1007F0006846FFF723FD0FB000BD0000E5FFFFFFD7
:100800002DE9F0411F46044603260168072A01F43A
:10081000006004DB08B116A505E016A503E008B1E9
:1008200015A500E015A521F010002060A069C01EEC
:10083000A0610FB1401EA0612046AFF300804FB110
:10084000D4E9012138469047206A401C2062C01C30
:10085000206206E0206AFAE7D4E9012115F8010BCD
:100860009047761EF8D22046AFF30080BDE8F081B5
:100870004E414E006E616E00494E4600696E660044
:100880002DE9F047814616468AB0354878440DC8B0
:100890008DE80D0032487844801C03AC0DC884E814
:1008A0000D0041F69B300844372190FBF1F290FB9C
:1008B000F1F5A5F1800501FB12041B3C02D5644251
:1008C000012000E00020DFF898A080460027FA44CD
:1008D000AAF1BE0A0EE0E0070AD03246684607EBEE
:1008E000470101230AEB810100F043FB8DE807007B
:1008F00064107F1C002CEED1194F7F44AE3F19E0ED
:10090000E80715D007EB04100DF1180A90E80E0067
:100910008AE80E00C068F04201D19819089032466A
:10092000012306A903A800F024FB03AB83E807001A
:100930006D10641C002DE3D14FF00103324669466F
:10094000B8F1000F03A802D000F0FEFA01E000F0B9
:1009500010FBC9E90001C9F808200AB0BDE8F0871A
:100960003C2E0000007B00F080007047004870477C
:100970002C0100207546FFF7F9FFAE4605006946D9
:10098000534620F00700854618B020B5FFF738FC25
:10099000BDE820404FF000064FF000074FF0000880
:1009A0004FF0000B21F00701AC46ACE8C009ACE801
:1009B000C009ACE8C009ACE8C0098D46704710B565
:1009C0000446AFF300802046BDE81040FFF704BCAA
:1009D0004FF0013C50F8042B51F8043B9A4221D1CE
:1009E000A2EB0C03934313EACC1317D150F8042B5A
:1009F00051F8043B9A4215D1A2EB0C03934313EA3E
:100A0000CC130BD150F8042B51F8043B9A4209D176
:100A1000A2EB0C03934313EACC13DBD04FF000009E
:100A2000704700BFD01A01BAB1FA81F101F0180184
:100A300022FA01F0CB40C1F12001DBB2C0B2C01AF2
:100A40002CFA01F3D11A914311EAC311E6D1704790
:100A50005FEA400C08BF91F0000F4FEA8C234FEA89
:100A6000C12243EA51514FEA1C5018BF00F5F04033
:100A70004FEA300018BF41F000415FEA6C5C00F0C3
:100A80002980BCF1FF3F08BF40F080407047130C45
:100A900006BF12044FF0100C4FF0000C130E04BFF1
:100AA00012020CF1080C130F04BF12010CF1040C1C
:100AB000930F04BF92000CF1020CD30F04BF52003D
:100AC0000CF1010C11464FF00002A0F11F00A0EB49
:100AD0000C00704711F0004F08BF704731F0004123
:100AE0003FF4D5AF0B0C06BF09044FF0100C4FF0CC
:100AF000000C0B0E04BF09020CF1080C0B0F04BF15
:100B000009010CF1040C8B0F04BF89000CF1020CDD
:100B1000CB0F04BF49000CF1010CCCF12003A0EB7A
:100B20000C0022FA03F302FA0CF241EA030100F18D
:100B30000100704720F07F4C80EA030023F07F47DC
:100B4000ACEB070303F57C5300F0004003F1FF0317
:100B50002DE980494FEA154B09B44FEA144325EAC1
:100B60000B4E24EA03480FF2042606EB132749082C
:100B70003E785FEA320203FB0667C7F5000707FB12
:100B800006F64FEA54374FEAD64606F1020607FB4F
:100B9000066CCCF1005C4FEA1C472CEA074C07FBC3
:100BA00006F40CFB06F504EB15464FEA961634BF27
:100BB00000204FF000404FEAD13706FB07FC4FEA18
:100BC0001C4C0CFB0BF7D21B03FB0CF761EB070172
:100BD0000CFB0EF7B0EB074072EB17420CFB08F76B
:100BE00034BFA2EB0742B2EB074261EB17414FEA79
:100BF0000C444FEA910706FB07FC4FEA1C4C0CFB28
:100C00000BF7B0EBC74072EB573203FB0CF734BF66
:100C1000A2EBC742B2EBC74261EB57310CFB0EF7B8
:100C2000B0EBC70072EB57720CFB08F734BFA2EBB6
:100C3000C702B2EBC70261EB5771039F4FEA8161B4
:100C400041EA921104EBCC044FEAD1374FEA8262B9
:100C500006FB07FC42EA90124FEA80604FEA1C4C08
:100C60000CFB0BF7D21B03FB0CF761EB07010CFB32
:100C70000EF7B0EB074072EB17420CFB08F734BFDE
:100C8000A2EB0742B2EB074261EB17414FEA8C55EA
:100C90004FEA910704EB9C2406FB07FC4FEA1C4C2F
:100CA0000CFB0BF7B0EBC74072EB573203FB0CF7B2
:100CB00034BFA2EBC742B2EBC74261EB57310CFB2A
:100CC0000EF7B0EBC70072EB57720CFB08F734BF9E
:100CD000A2EBC702B2EBC70261EB577115EB4C25D3
:100CE0004FEA816141EA92114FEA82624FEAD137BD
:100CF00042EA901206FB07FC44F100044FEA8060D0
:100D00004FEA1C4C0CFB0BF7D21B03FB0CF761EBFF
:100D100007010CFB0EF7B0EB074072EB17420CFB20
:100D200008F734BFA2EB0742B2EB074261EB174171
:100D300015EB1C154FEA813141EA92414FEA8232AC
:100D400042EA90424FEA80304FEA0C7644F10004C8
:100D500048EA03434EEA0B484FF0000EB2EB080C92
:100D600071EB030724BF624639464EEB0E0E4FF07F
:100D7000000B0018524149414BEB0B0BB2EB080C36
:100D800071EB03077BF1000B24BF624639464EEB43
:100D90000E0E4FF0000B0018524149414BEB0B0B6C
:100DA000B2EB080C71EB03077BF1000B24BF62462A
:100DB00039464EEB0E0E51EA020718BF46F0010607
:100DC00016EB0E7655F1000254F1000103D5BDE893
:100DD0008901BDE80088BDE88901BDE80048B61971
:100DE000524141EB0101A3F10103704780807F7EF6
:100DF0007D7C7B7A79787776767574737271717091
:100E00006F6E6E6D6C6C6B6A6A6968686766666542
:100E10006464636362616160605F5F5E5E5D5D5CD0
:100E20005C5B5B5A5A595958585757565655555541
:100E30005454535352525251515050504F4F4F4EA1
:100E40004E4D4D4D4C4C4C4B4B4B4A4A4A494949EF
:100E50004848484747474746464645454544444431
:100E6000444343434342424242414141002B9C465A
:100E700030D477002BD01CB54FEA370703B44FF0BE
:100E800010004FF01001BAF1000F06D0BCF1000FB6
:100E9000DCBF40F0080040F008014FF000000FBC3C
:100EA000BDE810400BF1010BBBF1010F08BF5FEA79
:100EB000170722BF12F1010211F101014FF00041A9
:100EC00043F1000300F0004043EA00007047F9D30B
:100ED0005708D0E746EA064613F1400F4FEA164698
:100EE0001FDD13F1200FDFBF16430A460021203318
:100EF0005B42BED0C3F1200746EA064602FA07F776
:100F00004FEA164646EA0706C3F1200722FA03F223
:100F100001FA07F721FA03F14FF0000342EA070252
:100F2000A7E746EA020646EA06464FEA164646EABA
:100F30000106BCBF46EA0646360C4FF000034FF0F0
:100F400000024FF0000194E72DE9804C9A46934649
:100F500070B491E8380007C831EA400C48BF34EA61
:100F6000430C03D5FFF7E6FDFFF780FFF0BCBDE8BB
:100F7000008C2DE9804C9A46934670B491E8380075
:100F800007C810F0804F08BF13F0804F03D100F066
:100F900005F8FFF76BFFF0BCBDE8008C20F07F4741
:100FA00080EA030023F07F4C07EB0C03A3F57C538E
:100FB00000F00040A3F1FE0392F0000F00F0B380B8
:100FC00095F0000F00F077802DE901494FEA1140BC
:100FD0004FEA144621EA004800FB06FC24EA0647D3
:100FE00008FB06F607FB08F800FB07F718EB0648B6
:100FF0004CEB164C4FEA124B18EB07484FEA1546DC
:101000004CEB174022EA0B4E0BFB06FC25EA064789
:101010000EFB06F607FB0EFE0BFB07F71EEB064E5C
:101020004CEB164C4FF000061EEB074E4CEB174BEB
:1010300018EB0B0840F1000018EB0E0B58EB000802
:1010400040F100008F1A4FF000013CBFC943661BFE
:1010500014BFB5EB040C00213CBFC943F61B4FEA9B
:1010600017444EEA8E0E27EA04454FEA1C4704FB5C
:1010700007622CEA074C05FB07F70CFB05F604FB9F
:101080000CFC16EB074642EB174216EB0C4642EB04
:101090001C421BEB060658EB0202414146EA9E0643
:1010A00001D5BDE80189B619524141EB0101A3F117
:1010B0000103BDE801894FEA14454FEA114724EACC
:1010C000054621EA074C05FB07F406FB07F70CFB76
:1010D00006F105FB0CFC11EB074144EB17444FEA0A
:1010E000124711EB0C4144EB1C4422EA074C05FB70
:1010F00007F206FB07F70CFB06F605FB0CFC16EBEC
:10110000074642EB174216EB0C4642EB1C456A18A9
:1011100054F1000148BF7047B619524141EB01013B
:10112000A3F10103704795F0000F37D04FEA114249
:101130004FEA144721EA024624EA074C02FB07F172
:1011400006FB07F70CFB06F402FB0CFC14EB074450
:1011500041EB17414FEA154714EB0C4441EB1C419E
:1011600025EA074C02FB07F506FB07F70CFB06F622
:1011700002FB0CFC16EB074645EB174516EB0C463D
:1011800045EB1C42121951F1000148BF7047B619D6
:10119000524141EB0101A3F1010370474FEA1445AD
:1011A0004FEA114724EA054621EA074C05FB07F1FF
:1011B00006FB07F70CFB06F24FF0000605FB0CFCE4
:1011C00012EB074241EB174112EB0C4251EB1C4171
:1011D00048BF7047921841EB0101A3F1010370472A
:1011E00070B5044600688168C943C90717D1816892
:1011F00021F00101816000F02BFC05460AE000BFF0
:1012000000F026FC401B022804D920688068C043F7
:10121000C00706D020688068C043C007F0D0002017
:1012200070BDA06A40F01000A062E06A40F00100CA
:10123000E062012070BD0000F8B50026044600966B
:1012400000688168C943C9072DD0816841F0010158
:101250008160164816490068B0FBF1F000E0401EBE
:1012600000900028FBD100F0F3FB054616E000BF1C
:1012700000F0EEFB401B022810D920688068C043B4
:10128000C0070BD0A06A40F01000A062E06A40F0F6
:101290000100E06284F824600120F8BD20688068C5
:1012A000C043C007E4D10020F8BD000018000020B2
:1012B00040420F00FEE7704772B6FEE710B50948DE
:1012C00000F05CFA1E21074800F0BAF9054800F06A
:1012D000F5F8800503D5034800F0F2F884B2204603
:1012E00010BD000024000020F8B50025044600953C
:1012F00090F8240001280BD0012084F82400204617
:10130000FFF76EFF2046FFF797FF060002D050E080
:101310000220F8BDA06A20F4885040F00200A062CC
:10132000022000F033FC25490968B1FBF0F04000D1
:1013300000E0401E00900028FBD12068816841F049
:101340000801816000F084FB074608E000F080FBA4
:10135000C01B0A2803D920688068000715D42068BC
:1013600080680007F2D42068816841F00401816040
:1013700000F06EFB074612E000F06AFBC01B0A2873
:101380000DD920688068400709D5A06A20F00200C6
:1013900040F01000A06284F824500120F8BD2068BD
:1013A00080684007E8D4A06A20F0020040F0010005
:1013B000A06284F824503046F8BD000018000020D8
:1013C000F8B50024009490F824202546012A12D074
:1013D000012280F824204A681F23072A0DD20668BC
:1013E000776B521E02EB820293409F430B6893403F
:1013F0001F43776319E00220F8BD06680D2A0AD260
:10140000376BD21F02EB820293409F430B689340DD
:101410001F43376309E0F76A0D3A02EB82029340FB
:101420009F430B6893401F43F7620A6807230668CF
:101430000A2A0AD3F7680A3A02EB420293409F4312
:101440008B6893401F43F76008E0376902EB420264
:1014500093409F438B6893401F4337610A68102A6B
:1014600001D0112A20D1124B02689A4217D19368F9
:101470001B0219D4936843F4000393600968102990
:1014800012D10C490C4A0968B1FBF2F101EB810160
:10149000490000E0491E00910029FBD104E0816A67
:1014A00041F020018162012480F824502046F8BDDB
:1014B000002401401800002040420F00806A70475D
:1014C0000068C06C704700002DE9F04104004FF047
:1014D00000057FD0A06A002628B9E66284F824605F
:1014E000204600F081F82046FFF77AFEA16AC9067F
:1014F00000D420B1A06A40F01000A0626AE0A16AA6
:1015000021F4885141F00201A162334923688B42E2
:10151000E16904D1B1F5402F01D14FF40021277BBF
:101520004FF4807C41EA470261680A43A168614543
:1015300008D0012906D0002194F814E0BEF1010F73
:1015400002D00AE06146F7E7C7B1A76A47F0200773
:10155000A762E76A47F00107E7625F6827F4694717
:101560000F435F60236899681C4F394011439960AD
:10157000A16861450BD0012909D00CE0DFF860E0DB
:10158000A7690EEB47370F4347F40061E5E7218A6F
:101590000D05A5F580152168CB6A23F470032B4354
:1015A000CB62216889680F4B1940914208D1E662ED
:1015B000A16A21F0020141F00101A162BDE8F081C0
:1015C000A06A20F0020040F01000A062E06A40F043
:1015D0000100E0620120F1E7003C0140FDF7E1FF7E
:1015E00000E0FFFFFE0E1FFF00B585B00021009157
:1015F00001910291039100680E49884218D10E486A
:10160000816941F400718161816901F40071049183
:10161000816941F0100181618069694600F0100024
:1016200004900220009003200190044800F006F985
:1016300005B000BD00240140001002400010014030
:101640002DE9F84300270D460446009700F000FA04
:10165000804620688168C90508D5A06A40F020004E
:10166000A06284F824700120BDE8F8834168C905B0
:1016700003D4C06A10F4700F2AD0022000F086FA5A
:101680003B490968B1FBF0F62068036939490B4210
:101690004FEA61014FEAA1121FD1C3684FEA611CF2
:1016A00013EA0C0F19D103690B4225D1C06810420F
:1016B00022D1142023E0681C0AD02DB100F0C8F913
:1016C000A0EB0800A84203D920680068800725D550
:1016D000206800688007EED52DE003690B4202D137
:1016E000C168114206D0026923490A4206D1C06886
:1016F000084203D1542002E0292000E0FC204643A8
:10170000009816E0681C11D02DB100F0A1F9A0EBF3
:101710000800A8420AD90098B04207D2A06A40F057
:101720000400A06284F8247003209DE70098401C08
:101730000090B042E6D321686FF012000860A06A02
:1017400040F40070A06220688068C0F3424007281F
:101750000CD1207B50B9A06A20F48070A062A06AEE
:10176000C00403D4A06A40F00100A06200207BE71F
:1017700018000020244992244992240070B50446A0
:1017800090F8240001280DD0012084F82400204680
:10179000FFF752FD02004FF0000005D084F824004E
:1017A000104670BD022070BDA16A40F2012399432A
:1017B00041F48071A1621F4D23681F49AB4218D1CB
:1017C0000E6816F4702F14D0A66A46F48016A6622E
:1017D0000E68760505D5A66A26F4005646F48056AE
:1017E000A662A66AF6040AD5E66A26F00606E6624E
:1017F00006E0A66A26F48016A6625E68E9E7E06263
:1018000084F824006FF00200186020688368C3F336
:101810004243072B05D1A84208D1096811F4702F63
:1018200004D0816841F480118160B9E7816841F496
:10183000A001F9E700280140042401402DE9F84FF8
:10184000DFF8C8910024A9F1040B23460F2709F102
:10185000040AABF1040ED1E00125A54006EA050219
:10186000AA4276D1DFF8A8C14E68A6EB0C086645FF
:101870002BD00DDC032E34D005DC36B3012E19D06D
:10188000022E2FD11BE0112E16D0122E2AD119E0D4
:10189000B8F5881F19D006DCB8F5803F15D0B8F52B
:1018A000801F1FD111E0B8F5001F0ED0B8F5041F3E
:1018B00018D10AE0CB6815E0CB681B1D12E0CB689D
:1018C00008330FE0CB680C330CE08B682BB1012B95
:1018D0004FF0080303D0456104E0042302E00561F2
:1018E00000E00023FF2A01D8064601E000F10406CB
:1018F0004FEA840501D9A5F12005D6F8008007FA42
:1019000005FC28EA0C0803FA05F548EA0508C6F8BC
:1019100000804D68ED0070D53E4DAE6946F0010681
:10192000AE61AD6924F0030605F0010500953A4D5E
:1019300006EB050CDCF80850A607360F07FA06F888
:1019400025EA0805DFF8D480404503D14FF00008B0
:1019500025E052E0DFF8C880404502D14FF0010891
:101960001DE0DFF8C080404502D14FF0020816E0CC
:10197000DFF8B480404502D14FF003080FE0DFF8F4
:10198000AC80404502D14FF0040808E0DFF8A080A9
:10199000404502D14FF0050801E04FF0060808FA73
:1019A00006F848EA0508CCF808804D68D9F80060C8
:1019B000ED024D4601D5164300E096432E604D687A
:1019C000DAF80060AD02554601D5164300E09643B3
:1019D0002E604D68DBF80060AD035D4601D516430F
:1019E00000E096432E604D68DEF80060ED0375461A
:1019F00001D5164300E096432E60641C0A68164623
:101A0000E2407FF429AFBDE8F88F000008040140F0
:101A100000001110001002400000014000080140C9
:101A2000000C01400010014000140140001801406A
:101A3000001C0140C26821EA02030A4043EA024155
:101A4000016170470AB1016170470904FBE70000BA
:101A500001488068704700000C000020024881683F
:101A600002781144816070470C000020074810B5CF
:101A7000016841F010010160032000F075F80F20AB
:101A800000F006F800F024F8002010BD002002400D
:101A900070B50D4D04464FF47A712878B1FBF0F023
:101AA0000A490968B1FBF0F000F0AEFB48B9102C10
:101AB00007D200222146501E00F036F800206C604C
:101AC00070BD012070BD00000C0000201800002037
:101AD0000C4808B5816941F001018161816901F01B
:101AE00001010091C16941F08051C161C06900F0FC
:101AF000805000900448416821F0E06141F000719D
:101B0000416008BD0010024000000140002809DBD0
:101B100000F01F02012191404009800000F1E02007
:101B2000C0F8001170470000F0B40E4B1B680C4663
:101B3000C3F30223C3F10705042D00D90425191DA1
:101B4000072901D2002300E0DB1E012606FA05F179
:101B5000491E214099409E40761E16403143F0BCFC
:101B600001F063BA0CED00E0064900F007020868D6
:101B70004FF6FF03184040EA0220034A1043086072
:101B8000704700000CED00E00000FA0510B50146BA
:101B90000020284C04292FD00BDC012930D0022949
:101BA00029D100F06BF96168C1F38131491C49000A
:101BB0001FE0082920D010291DD161682268D201B8
:101BC00019D51D48C1F38342C903805C0AD56168F9
:101BD000194AC1F34041921E515C184AB2FBF1F11F
:101BE000484301E0164948436168490203D4400074
:101BF0000321B0FBF1F010BDBDE8104000F04EB97C
:101C0000226AC2F30121012903D1920701D5C80339
:101C100010BD022905D1626A920702D549F64040FB
:101C200010BD0329FCD121688903F9D54FF2244066
:101C300010BD0000001002402836000800127A0093
:101C400000093D002DE9F84305460078354CC007F2
:101C500054D0E0690026C00008D4E06940F080500C
:101C6000E061E069012600F0805000902E48016894
:101C7000C90512D40168804641F480710160FFF704
:101C8000E7FE074605E000BFFFF7E2FEC01B642841
:101C900023D8D8F80000C005F6D5206A10F44070AB
:101CA00021D0A98801F4407181421CD0206A1F49CB
:101CB000012220F440700A6000220A602062C007FE
:101CC00011D0FFF7C5FE074641F2883808E000BF93
:101CD000FFF7BEFEC11B414502D90320BDE8F883D2
:101CE000206A8007F4D5206A696820F440700843B0
:101CF00020621EB1E06920F08050E0612878800702
:101D000005D56068A96820F44040084360602878E1
:101D1000C00605D56068696920F4800008436060EA
:101D20000020DBE700100240007000404004424207
:101D30002DE9F0470F46050061D0434E306800F0B2
:101D40000700B84209D2306820F0070038433060FD
:101D5000306800F00700B84251D128683B4C810739
:101D600012D5400703D5606840F4E06060602878D1
:101D7000000703D5606840F4605060606068A9683F
:101D800020F0F000084360602878C00728D0686819
:101D9000012810D02168022810D0890700292EDAE6
:101DA000616821F0030101436160FFF751FE804645
:101DB00041F288390DE021688903EFE78901EDE7F9
:101DC000FFF746FEA0EB0801494502D90320BDE814
:101DD000F0876068696800F00C00B0EB810FEFD10C
:101DE000306800F00700B8420BD9306820F00700D7
:101DF00038433060306800F00700B84201D001205D
:101E0000E5E72878400705D56068E96820F4E060D8
:101E1000084360602878000706D56068296920F4C7
:101E2000605040EAC100606000F038F86168084A1C
:101E3000C1F30311515CC8400649086006480068B8
:101E4000FFF726FE0020C2E70020024000100240FB
:101E5000383600081800002010000020044805490A
:101E600000684968044AC1F30221515CC8407047C8
:101E700018000020001002404836000804480549B8
:101E800000684968044AC1F3C221515CC8407047E8
:101E90001800002000100240483600080E4A516821
:101EA0000E4801F00C03042B11D0082B0FD10C4865
:101EB000C1F38343C903C05C0AD55168084AC1F322
:101EC0004041921E515C054A5043B0FBF1F070470F
:101ED00004494843704700000010024000127A0095
:101EE0001636000800093D002DE9F84F040070D0B7
:101EF0002078C04DC00749D06868C0F38100012830
:101F000007D06868C0F38100022809D16868C0035F
:101F100006D52868800339D560680028E7D035E009
:101F20006068B0F5803F0BD010B1B0F5A02F11D094
:101F3000286820F480302860286820F4802002E09F
:101F4000286840F480302860606890B1FFF780FD19
:101F500006460AE0286840F480202860F0E700BFC9
:101F6000FFF776FD801B642873D828688003F7D5B7
:101F70000CE0FFF76DFD064605E000BFFFF768FDCA
:101F8000801B6428F0D828688003F7D420789A4E04
:101F900080074FF001094FF0000839D5686810F04C
:101FA0000C0F07D06868C0F38100022809D1686867
:101FB000C00306D42868800714D52069012808D1F9
:101FC00010E02069B0B1C6F80090FFF741FD074668
:101FD00005E00AE1FFF73CFDC01B0228C4D82868D1
:101FE0008007F7D52868616920F0F80040EAC10051
:101FF00028600DE0C6F80080FFF72AFD074604E0E0
:10200000FFF726FDC01B022823D828688007F7D4D5
:10201000207800072CD57948A169D9B1C0F8009083
:10202000FFF716FD074604E0FFF712FDC01B02286C
:102030000FD8686A8007F7D571484FF4FA510068E5
:10204000B0FBF1F0009000BF0098411E0091FAD261
:102050000EE080E0C0F80080FFF7FAFC074604E0DD
:10206000FFF7F6FCC01B022875D8686A8007F7D412
:102070002078400760D5E8690027C00008D4E869E7
:1020800040F08050E861E869012700F0805000903E
:102090005C480168C90513D40168834641F4807126
:1020A0000160FFF7D5FC824606E000BFFFF7D0FCD9
:1020B000A0EB0A0064284ED8DBF80000C005F5D577
:1020C000E06801280AD008B1052813D0286A20F05A
:1020D00001002862286A20F0040002E0286A40F02B
:1020E00001002862E06841F2883B98B1FFF7B0FC3C
:1020F00082460BE0286A40F004002862EEE700BF49
:10210000FFF7A6FCA0EB0A0159455AD8286A8007B8
:10211000F6D50CE0FFF79CFC824605E0FFF798FC43
:10212000A0EB0A0159454CD8286A8007F6D41FB1A4
:10213000E86920F08050E861E06988B36968C1F31C
:102140008101022944D00228C6F8608004D0FFF73C
:102150007FFC044638E034E0FFF77AFC074604E0F1
:10216000FFF776FCC01B02282BD828688001F7D423
:10217000206AB0F5803F05D16868A16820F400307E
:1021800008436860D4E908010843696821F47411C0
:1021900008436860C6F86090FFF75AFC044606E002
:1021A00025E000BFFFF754FC001B022809D828686F
:1021B0008001F7D51BE000BFFFF74AFC001B022897
:1021C00002D90320BDE8F88F28688001F4D40EE01E
:1021D0000128F7D06868226A00F48031914204D166
:1021E000616A00F47010884201D00120EAE7002003
:1021F000E8E7000000100240000042428004424232
:10220000180000200070004010B5401EB0F1807F23
:1022100001D3012010BD4FF0E02460610F21601751
:1022200000F003FF0020A06107202061002010BD06
:102230007047704710B590F83C20012A22D0012247
:1022400080F83C20CA688C6822F4407222434C68B3
:1022500022F4806222430C6822F4006222430C695B
:1022600022F4805222434C6922F400522243C9696D
:10227000002322F480420A4301684A6480F83C301B
:10228000002010BD022010BD70B590F83C20012A3E
:102290002CD0012480F83C40022280F83D200368C5
:1022A0005A689D6822F070060A6832435A60104BE3
:1022B00002689A420ED00F4B9A420BD0B2F1804F77
:1022C00008D00D4B9A4205D00C4B9A4202D00C4BD1
:1022D0009A4204D1496825F080031943916080F83F
:1022E0003D40002180F83C10084670BD022070BDC2
:1022F000002C014000340140000400400008004070
:10230000000C004010B5040003D094F83D0010B15B
:1023100007E0012010BD002084F83C00204600F0BA
:102320001FF8022084F83D00211D206800F0B8FC51
:10233000012084F8460084F83E0084F83F0084F8C9
:10234000400084F8410084F8420084F8430084F897
:10235000440084F8450084F83D00002010BD0000D2
:1023600008B501681048B1F1804F0BD00F4A914277
:1023700007D1816941F400518161806900F4005006
:10238000009008BDC16941F00101C161C06900222E
:1023900000F00100009011461C20FFF7C5FBBDE8CE
:1023A00008401C20FFF7B2BB00100240003401407F
:1023B00090F83D10012901D001207047022180F8DA
:1023C0003D100168CA6842F00102CA6000680E4907
:1023D00088420ED00D4988420BD0B0F1804F08D012
:1023E0000B49884205D00B49884202D00A498842ED
:1023F00004D1816801F00701062903D0016841F08A
:102400000101016000207047002C014000340140B0
:102410000004004000080040000C004070B5044675
:1024200090F83C000025012817D0012684F83C6074
:10243000022084F83D002068826822F0770222F4AE
:102440007F4282600868502838D00DDC20284FD0A9
:1024500005DC90B3102811D14AE0022070BD30286D
:1024600046D040280AD13BE060282FD070280DD0FC
:10247000B0F5805F03D0B0F5005F12D0012584F87D
:102480003D60002084F83C00284670BDCB68D1E94F
:102490000121206800F05FFC2068816841F077012D
:1024A00009E0CB68D1E90121206800F054FC2068E4
:1024B000816841F480418160E1E719E0CA684968B8
:1024C000206800F01DFD5021206806E0CA684968B8
:1024D000206800F026FD6021206800F046FCCEE771
:1024E000CA684968206800F00BFD40212068F4E7C5
:1024F000226801461046F0E770472DE9F041044696
:102500000068C66805694FF00007A90713D5B10731
:1025100011D5F91E016101202077206880698007AC
:10252000204602D0FFF7E8FF04E000F0A5F82046BF
:1025300000F037F92777680716D5700714D521689A
:102540006FF004000861022020772068806910F491
:10255000407F204602D0FFF7CFFF04E000F08CF868
:10256000204600F01EF92777280715D5300713D528
:1025700021686FF008000861042020772068C06996
:102580008007204602D0FFF7B7FF04E000F074F8A0
:10259000204600F006F92777E80616D5F00614D590
:1025A00021686FF010000861082020772068C0695A
:1025B00010F4407F204602D0FFF79EFF04E000F0B9
:1025C0005BF8204600F0EDF82777E80708D0F00721
:1025D00006D021686FF001000861204600F03CF948
:1025E000280608D5300606D521686FF080000861FE
:1025F0002046FFF71DFE680608D5700606D521683F
:102600006FF040000861204600F044F9A8060AD5A2
:10261000B00608D521686FF0200008612046BDE8AB
:10262000F041FFF706BEBDE8F081000000B585B0BF
:102630000021009101910291039100680B498842A9
:1026400012D10B48816941F01001816180696946AE
:1026500000F0100004904FF44070009002200190B0
:1026600003900448FFF7EAF805B000BD00340140CC
:102670000010024000100140704770B5044690F809
:102680003C0000260D4601280FD0012084F83C00B4
:102690006AB1042A1DD0082A2FD00C2A3FD0012667
:1026A000002084F83C00304670BD022070BD2068D8
:1026B00000F064FB2068816941F0080181612068B5
:1026C000816921F004018161206881692A691143CF
:1026D00011E0206800F082FB2068816941F400610C
:1026E00081612068816921F480618161206881694C
:1026F0002A6941EA02218161D2E7206800F0A4FB47
:102700002068C16941F00801C1612068C16921F0F8
:102710000401C1612068C1692A69114311E0206880
:1027200000F0C6FB2068C16941F40061C161206806
:10273000C16921F48061C1612068C1692A6941EAE7
:102740000221C161ACE710B5040003D094F83D004C
:1027500010B107E0012010BD002084F83C002046A5
:1027600000F01EF8022084F83D00211D206800F0D2
:1027700097FA012084F8460084F83E0084F83F0070
:1027800084F8400084F8410084F8420084F8430053
:1027900084F8440084F8450084F83D00002010BD12
:1027A0007047704710B50446022249B104290ED083
:1027B000082913D094F84100012816D0012010BD3B
:1027C00094F83E000128F9D184F83E200FE094F8F7
:1027D0003F000128F2D184F83F2008E094F840003F
:1027E0000128EBD184F8402001E084F84120012247
:1027F000206800F0A3FA13492068134A884201D0E8
:10280000904203D1436C43F4004343642068884200
:102810000DD090420BD0B0F1804F08D00B498842C8
:1028200005D00B49884202D00A49884204D1816808
:1028300001F00701062903D0016841F001010160A0
:10284000002010BD002C0140003401400004004075
:1028500000080040000C004070B50B49884211D1BF
:102860000A4C2088401C80B22080FA280AD1084DEA
:10287000811D2846FFF7DEF869152846FFF7DAF8CC
:102880000020208070BD00005400002020000020A7
:10289000000C0140704770B5040004D094F841006A
:1028A000002510B106E0012070BD84F8405020469C
:1028B00000F024F8242084F841002068C16821F445
:1028C0000051C160204600F03FFB2068016921F4FF
:1028D000904101612068416921F02A01416120682D
:1028E000C16841F40051C1606564202084F8410052
:1028F00084F842006563002070BD000030B585B0EB
:1029000000240094019402940394006814498842BE
:1029100024D11448816941F480418161816901F4C5
:1029200080410491816941F00401816180690E4D0B
:1029300000F0040004904FF4007000900220019019
:102940000320039069462846FEF778FF2815CDE955
:102950000004694628460294FEF770FF05B030BDBA
:10296000003801400010024000080140FEE700006E
:102970003EB5002411480094019402940E498460ED
:10298000016004730475012505614FF46021446002
:10299000C161FEF799FD08B1FEF78EFC0B20CDE971
:1029A0000005694602940548FEF70AFD002801D09B
:1029B000FEF782FC3EBD0000002401402400002000
:1029C0002DE9F04786B000242D480094019402942C
:1029D0000394816941F020018161816901F0200146
:1029E0000491816941F010018161816901F0100158
:1029F0000491816941F004018161816901F0040160
:102A00000491816941F0080181618069012200F02F
:102A10000800DFF870801503049029464046FFF750
:102A200011F8DFF86490012204214846FFF70AF804
:102A3000DFF858A04FF44077002239465046FFF7A0
:102A400001F80095022601250396CDE90154694657
:102A50004046FEF7F3FE0420CDE90005CDE902462D
:102A600069464846FEF7EAFE00970396CDE9015411
:102A700069465046FEF7E2FE06B0BDE8F08700006A
:102A8000001002400010014000140140000C014001
:102A900010B586B000241748009401940294039462
:102AA00004944FF080410594016041F61F41C0E954
:102AB0000114C721C0E9031480218161FFF722FCC2
:102AC00008B1FEF7F9FB4FF48050009069460948C1
:102AD000FFF7A4FC08B1FEF7EFFB049404A9054836
:102AE0000594FFF7D1FB002801D0FEF7E5FB06B007
:102AF00010BD00005400002010B596B000240F94C3
:102B000010941194129413941C2168461494FDF7A8
:102B1000C9FB202107A8FDF7C5FB2D482B49016003
:102B20000621C0E9011441F61F41C0E903144461C4
:102B30008461FFF7E7FB08B1FEF7BEFB4FF480505E
:102B40000F900FA92248FFF769FC08B1FEF7B4FB0C
:102B50001F48FFF7F8FD08B1FEF7AEFB139413A969
:102B60001B481494FFF790FB08B1FEF7A5FB60200B
:102B700000903220CDE901040394049405940822C6
:102B8000694613480694FFF778FD08B1FEF794FBF9
:102B90000C2269460E48FFF770FD08B1FEF78CFB6A
:102BA0000794089409944FF400500A94CDE90B401F
:102BB00007A907480E94FFF73DFB08B1FEF77CFB21
:102BC0000348FFF733FD16B010BD0000003401408C
:102BD0009C0000200C4810B50A4901604FF4E13117
:102BE0004160002181600C22C160C0E90412816152
:102BF000C161FFF750FE002803D0BDE81040FEF78A
:102C00005BBB10BD00380140E4000020FEE7FEE79A
:102C100070477047FEF722BF30B595B0282168464F
:102C2000FDF740FB14210AA8FDF73CFB18210FA873
:102C3000FDF738FB01210804CDE9001000250295BD
:102C400002240491CDE907404FF4E0100990684652
:102C5000FFF74AF908B172B6FEE70AA90F2081E82A
:102C600031004FF48060CDE90D0502210AA8FFF77D
:102C70005FF808B172B6FEE74FF4004011900F9470
:102C80000FA8FEF7DFFF002801D072B6FEE715B0EF
:102C900030BD70470148FFF730BC000054000020F1
:102CA000F0B50268204C214D214E224F224B4FF0AF
:102CB000804CA04209D0984207D0604505D0A84278
:102CC00003D0B04201D0B84204D122F0700E4A685D
:102CD00042EA0E02A04209D0984207D0604505D0D2
:102CE000A84203D0B04201D0B84203D122F44075CB
:102CF000CA682A434D6922F080022A4302608A682A
:102D0000C2620A688262A04201D0984201D1096978
:102D10000163012141610169C90703D0016921F003
:102D200001010161F0BD0000002C014000040040E1
:102D300000080040000C00400034014010B501F0D4
:102D40001F030121046A99408C430462016A9A407E
:102D50001143016210BD10B5846842EA032224F4D5
:102D60007F440A432243826010BD826822F07002D1
:102D70000A4342F00701816070470000F0B5036A22
:102D8000026A22F00102026242688469124E24F053
:102D900073050C682C4323F002058B682B430D4D03
:102DA000A84201D0B04205D123F00807CB683B43CD
:102DB00023F00403A84201D0B04205D14D6922F4AA
:102DC000407215438A692A434260846149684163BD
:102DD0000362F0BD002C014000340140F0B5026AEE
:102DE000036A23F010030362436884690D6824F4C6
:102DF000E64444EA05248D6822F0200242EA0512E6
:102E00000F4D104EA84201D0B04206D1CF6822F03B
:102E1000800242EA071222F04002A84201D0B042EA
:102E200007D14D6923F4406343EA85038D6943EA82
:102E3000850343608461496881630262F0BD0000DC
:102E4000002C014000340140F0B5026A036A23F40B
:102E5000807303624368C46922F4007224F073052E
:102E60000C68124E2C438D6842EA05220E4DA84292
:102E700001D0B04206D1CF6822F4006242EA0722B4
:102E800022F48062A84201D0B04207D14D6923F4F8
:102E9000405343EA05138D6943EA05134360C46157
:102EA0004968C1630262F0BD002C0140003401405A
:102EB00030B5046A026A22F4805202624268C36931
:102EC0000D6823F4E64343EA05238D6824F4005497
:102ED00044EA0534084DA84202D0084DA84204D166
:102EE0004D6922F4804242EA85124260C36149681A
:102EF0000164046230BD0000002C01400034014038
:102F000010B5036A046A24F001040462846924F0A1
:102F1000F00444EA021423F00A020A4384610262C4
:102F200010BD10B5036A046A24F0100404628469B9
:102F300023F0A00324F4704444EA023243EA01116E
:102F40008261016210BD000070B50446006801692D
:102F5000E26821F44051114301612169A0680843EE
:102F6000616908432168CA6841F20C639A430243CD
:102F7000CA6020684169A26921F44071114341612E
:102F80001E492068884202D1FEF778FF01E0FEF773
:102F900065FF00EBC00101EB001260686421800056
:102FA000B2FBF0F3B3FBF1F36FF018067343B2FB1F
:102FB000F0F5B2FBF0F605EB8305322303EB0515C4
:102FC000B5FBF1F5B6FBF1F605F0F00505EB0615DE
:102FD000B2FBF0F6B2FBF0F0B0FBF1F06FF01802CC
:102FE000504306EB800003EB0010B0FBF1F02168CA
:102FF00000F00F002844886070BD000000380140D8
:10300000FEE7490050EAC12018BF04204A0D18BF4E
:1030100040F0010040F2FF72B2EB515F08BF40F098
:103020000200012808BF052070470907090E002883
:1030300004DB00F1E02080F80014704700F00F007E
:1030400000F1E02080F8141D704770474FF0E02039
:10305000016921F00401016103480921017042F274
:1030600028314180704700001C0000200B4949882E
:1030700048434FF0E021486100228A61086940F02E
:10308000010008610869C30701D0C003FAD50869C7
:1030900020F0010008618A61704700001C000020D8
:1030A00004490A685206FCD5024AC1B2121D1160D9
:1030B0007047000000380140FEF7D8FCFFF7ACFD78
:1030C000FFF77EFCFFF754FCFFF716FDFFF7E0FC6F
:1030D000FFF780FDFFF7BAFF1948FEF705F9194819
:1030E000FFF766F908211848FFF75CFB0C2116482A
:1030F000FFF758FB154C164E164F4FF066356FF024
:103100000B0800BFFEF7DAF8208000F081F82A46AD
:10311000334600F091F800223B4600F08DF842461D
:1031200000F032FA00F03AF8606000F083F90246ED
:103130000B4609A0FDF776F8C820FFF797FFE1E7F7
:1031400024000020540000209C00002000000020EB
:1031500066660A4000002640B5B1C7B0B5E7B3D8EF
:10316000B5E7D1B9CEAA3A2025660D0A00000000C5
:1031700010B500290AD00878002807D005487844FF
:10318000FDF726FC002801D0002010BD024878443D
:1031900010BD0000860500007E05000021F0004201
:1031A000A2F16052B2F5801F01F0004328BFD2F1B6
:1031B0007F6C0BD95FEA001C43EAC20242EB5070FD
:1031C00018BF704728BF20F001007047B2F5801F7C
:1031D000BCBF184670474FEA410C1CF5001F02D2D5
:1031E000084600F098B970B500F0D0F800000089EA
:1031F000FFF7F6BF4FF00040A0F5800070470000D9
:1032000002494FF0000000F08DB900BF0000F87FC8
:10321000B0FA80F310FA03F10AD0C3F11D0303F5ED
:1032200080634FEA41504FEA035202EBD1217047CD
:103230004FF0000070470000DFF848C170B51CEA8D
:10324000111E1EBF1CEA13159EEA0C0F95EA0C0F07
:1032500000F06F8081EA030423EA4C134EEAD47E27
:1032600021EA4C1141F4801143F48013AE44A1FBD8
:10327000024CA0FB0365AEF17F7E361955EB0C05C1
:10328000A1FB034C4CF10003A0FB021C16EB0C0647
:10329000654153F10003094218BF46F0010613F4DB
:1032A000007F0BD14FEA03314FEA0530340341EA86
:1032B000155140EA16506FF003020AE04FEAC321AD
:1032C0004FEAC520F40241EA555140EA56506FF0EA
:1032D000020202EB2E4201EB025585EACE710AD0C2
:1032E0005FEA440C18BF24F0004450F1000041F1A3
:1032F000000120EAD47040F2FE7C624500D270BD2D
:10330000A84214BF4FF080444FF04044002E08BF45
:103310000024BEF1806FA8BFA1F1C041BDE870409C
:1033200080F282804FF0000001F1C04101F00041C5
:1033300070479EEA0C0F0CEA131518BF95EA0C0FA4
:1033400006D04FF0000081EA030E0EF0004170BD80
:1033500000F01CF88900013E00F007B800F009B841
:103360004FEA430C5FEA5C5C08D081EA030100F09D
:103370005BB84FEA410C5FEA5C5CF6D14FF00000AD
:10338000014970470000FF070000F87F0EF1020EB0
:103390002EF0030E5EF8046B364205D4012A43EB8F
:1033A000030515F5001F12D8012841EB010C1CF58F
:1033B000001F0CD80ED14FEAD17C15F5001F0CEB85
:1033C0004C0C0CF1020C08BF4CEBD37C04E04FF02A
:1033D000080C01E04FEAD37C0CEB4C0526FA05F60D
:1033E00006F00706B6F1040C06D20EEB860CBDE81B
:1033F00070404CF0010C6047DFE80CF0090B020252
:103400004FF000414FF00000A1F5002170BD1946BA
:103410001046012851EB010418BFD4F5001484BFF5
:10342000002001F0004170BD0808A0F500114FEA2E
:103430003101704743004FEAD30C4FEA3C0C434044
:103440001FBF40070CF1605113F0FE4F70471CF096
:10345000006F03D100200CF0004170470CF00043D6
:1034600043EA507010B540EACC0000F00EF800BFFF
:10347000000000924FEA0001FFF7D6BF4FF0004175
:103480004FF00000A1F5002170470EF1020E2EF062
:10349000030E5EF8044B244204D44FEA4102B2F119
:1034A0007F4F11D84FEA4003B3F17F4F0CD80ED1B4
:1034B0004FEAD07CB2F17F4F0CEB4C0C0CF1020CBC
:1034C00008BF4CEBD17C04E04FF0080C01E04FEA60
:1034D000D17C0CEB4C0324FA03F404F00704B4F1A0
:1034E000040C06D20EEB840CBDE810404CF0010C2D
:1034F0006047DFE80CF0070802024FF00040A0F53B
:10350000800010BD0846420018BFD2F1807288BF0B
:1035100000F0004010BDFF2141EAD050C0057047C7
:10352000FCF7C3BF0CF00F03092B08BF082000F005
:1035300059800A2B0BD0082B18BF704708BF1CF00E
:10354000400F0AD04FF000004FF0000170471CF010
:10355000400F18BF4FF0004070471CF0100F08D00C
:1035600020F0704300F07F4242EAD3014FEA4370FB
:10357000704700F0604021F07F4242EA000201F013
:103580007F4040EA727070474FF0FF0C4CF4E06CE3
:103590001CEA11531CBF9CEA030C9445C2BFDA42DB
:1035A00001EB02517047002B0DD0BCF1000F0FD082
:1035B000002A01F00041A4BF41F0E04141F07F61E9
:1035C0004FF00000704701F000414FF000007047DD
:1035D00050EA01334FF09B0C18BF4CF0806C7FF425
:1035E0000FAE70471CF4801F11D01CF4E02F03D0E5
:1035F0006FEACC31490070474FF04050EFF3008242
:1036000022F0704242EA000282F3008870474FF0D5
:1036100000007047010202030405060708090A0BAF
:103620000C0D0E0F10100102020304050607080915
:103630000A0B0C0D0E0F101000000000000000001F
:103640000102030406070809000000000102030448
:1036500002400000000000A0000000000540000043
:10366000000000C8000000000C4000000000409C6A
:1036700000000000194000000020BCBE0000000057
:1036800034400000BFC91B8E00000004B54000009C
:10369000504BCFD06607E2CF010000006C41000024
:1036A0003E8251AADFEEA73401000000D94200009B
:1036B000DCB5A0E23A301F97FFFFFFFFB4450000E2
:1036C000FD25A0C8E9A3C14FFFFFFFFFFF3F00009A
:1036D0000000008000000000FF3F000000000080AC
:1036E0000000000020370008000000202400000037
:1036F0006C01000844370008240000206C0700001B
:10370000880100081C00000043000000F8FFFFFFD4
:103710000C0000000E0000000F0000002E00000052
:103720000000000000000000000000000100000098
:10373000100000000000000000127A0000000000ED
:043740000000000085
:0400000508000131BD
:00000001FF
